{
  "_format": "hh-sol-artifact-1",
  "contractName": "SimpleVoting",
  "sourceName": "contracts/Voting.sol",
  "abi": [
    {
      "anonymous": false,
      "inputs": [
        {
          "indexed": true,
          "internalType": "uint256",
          "name": "pollId",
          "type": "uint256"
        },
        {
          "indexed": false,
          "internalType": "string",
          "name": "option",
          "type": "string"
        },
        {
          "indexed": true,
          "internalType": "address",
          "name": "voter",
          "type": "address"
        },
        {
          "indexed": false,
          "internalType": "uint256",
          "name": "timestamp",
          "type": "uint256"
        }
      ],
      "name": "Voted",
      "type": "event"
    },
    {
      "inputs": [
        {
          "internalType": "uint256",
          "name": "pollId",
          "type": "uint256"
        },
        {
          "internalType": "string",
          "name": "option",
          "type": "string"
        }
      ],
      "name": "vote",
      "outputs": [],
      "stateMutability": "nonpayable",
      "type": "function"
    }
  ],
  "bytecode": "0x608060405234801561001057600080fd5b5061027e806100206000396000f3fe608060405234801561001057600080fd5b506004361061002b5760003560e01c80632410847514610030575b600080fd5b61004a60048036038101906100459190610149565b61004c565b005b3373ffffffffffffffffffffffffffffffffffffffff16837f6d7d65df8c21a530882f087d6cb5c11015983c58587b76b85ac03a0f4fd9e6a984844260405161009793929190610216565b60405180910390a3505050565b600080fd5b600080fd5b6000819050919050565b6100c1816100ae565b81146100cc57600080fd5b50565b6000813590506100de816100b8565b92915050565b600080fd5b600080fd5b600080fd5b60008083601f840112610109576101086100e4565b5b8235905067ffffffffffffffff811115610126576101256100e9565b5b602083019150836001820283011115610142576101416100ee565b5b9250929050565b600080600060408486031215610162576101616100a4565b5b6000610170868287016100cf565b935050602084013567ffffffffffffffff811115610191576101906100a9565b5b61019d868287016100f3565b92509250509250925092565b600082825260208201905092915050565b82818337600083830152505050565b6000601f19601f8301169050919050565b60006101e683856101a9565b93506101f38385846101ba565b6101fc836101c9565b840190509392505050565b610210816100ae565b82525050565b600060408201905081810360008301526102318185876101da565b90506102406020830184610207565b94935050505056fea2646970667358221220f404b683a5a23bc01e8343a347ef7dc7ff5629369a92e078e2b3193311cbeca164736f6c63430008140033",
  "linkReferences": {},
  "deployedLinkReferences": {}
}